Manually decode this transaction hex:
"0200000000010131811cd355c357e0e01437d9bcf690df824e9ff785012b6115dfae3d8e8b36c10100000000fdffffff0220a107000000000016001485d78eb795bd9c8a21afefc8b6fdaedf718368094c08100000000000160014840ab165c9c2555d4a31b9208ad806f89d2535e20247304402207bce86d430b58bb6b79e8c1bbecdf67a530eff3bc61581a1399e0b28a741c0ee0220303d5ce926c60bf15577f2e407f28a2ef8fe8453abd4048b716e97dbb1e3a85c01210260828bc77486a55e3bc6032ccbeda915d9494eda17b4a54dbe3b24506d40e4ff43030e00"


Header 
02000000 -> Version, 4 bytes, 2
00 -> SegWit Marker, 1 byte, 0 (Identifies SegWit)
01 -> SegWit Flag, 1 byte, 1 (Witness data present)
01 ->Input Count, 1 (VarInt), 1 input

Input 1 
31811cd355c357e0e01437d9bcf690df824e9ff785012b6115dfae3d8e8b36c1 -> Previous Tx Hash, 32, Reverse: 31811cd355c357e0e01437d9bcf690df824e9ff785012b6115dfae3d8e8b36c1
01000000 -> Previous Tx Out Index, 4, 1
00 -> ScriptSig Length, 1 (VarInt), 0 bytes (Empty for Native SegWit)
fdffffff -> Sequence, 4, 4294967293 (0xFFFFFFFD)

Outputs 
02 -> Output Count, 1 (VarInt), 2 outputs

Output 1 
20a1070000000000 -> Value (Satoshis), 8, 500,000 satoshis (0.005 BTC)
16 -> ScriptPubKey Length, 1 (VarInt), 22 bytes
001485d78eb795bd9c8a21afefc8b6fdaedf71836809 -> ScriptPubKey, 22, P2WPKH script: Witness Version 0 (00) + 20-byte hash (14...)
4c08100000000000 -> Output 2 Value (Satoshis), 8, 1,051,852 satoshis (0.01051852 BTC)
16 -> ScriptPubKey Length, 1 (VarInt), 22 bytes
0014840ab165c9c2555d4a31b9208ad806f89d2535e -> 2ScriptPubKey, 22, P2WPKH script: Witness Version 0 (00) + 20-byte hash (14...)


Witness 
02 -> Input 1 Item Count, 1 (VarInt), 2 items
47 -> Item 1 (Signature) Length, 1 (VarInt), 71 bytes
304402207bce86d430b58bb6b79e8c1bbecdf67a530eff3bc61581a1399e0b28a741c0ee0220303d5ce926c60bf15577f2e407f28a2ef8fe8453abd4048b716e97dbb1e3a85c01 -> Item 1 (Signature), 71, DER-encoded ECDSA Signature
21 -> Item 2 (PubKey) Length -\> 21, 1 (VarInt), 33 bytes
0260828bc77486a55e3bc6032ccbeda915d9494eda17b4a54dbe3b24506d40e4ff4 -> Item 2 (Public Key), 33, Compressed Public Key

Trailer 
43030e00 -> Locktime, 4, 917,059 (Block Height)
